:040000000C94B500A7
:040024000C944B04E9
:04002C000C947D04AF
:14005400DD14E81407152B155D145B157315BF15BF15051623
:14006800051667166716381438175816471600002041008028
:14007C0040C020A060E0109050D030B070F0CDCC4CBECDCC34
:140090004C3E0000C8C20000C84200009643000048C200005B
:1400A40000004B102617EF1DA6244C2BE1316538D93E3C451C
:1400B8008F4BD25106582A5E3E64446A3B702376FC7BC781FE
:1400CC008487338DD5926898EF9D68A3D3A832AE85B3CAB842
:1400E00003BE30C351C865CD6ED26BD75CDC42E11DE6ECEA57
:1400F400B0EF6AF4000020C20000204100004843000080406D
:1401080000000040000048C2000096430000C8420AD7A33BF7
:14011C0000002041000000003F065B4F666D7D077F6FBF86F5
:14013000DBCFE6EDFD87FFEF777C395E79713D76300E7038BF
:1401440000375C7367506D313E1C000000004640000000006C
:1101580000EC01010A0A000000A802A0023702FFFF11
:14016A00CFE5D8E0CDBFDEBFCE51D0400AEA08830024E1E752
:14017E00F0E012E0EA3FF10711F00192FBCF0083E8E5F1E00B
:14019200A0E6B0E011E000E00BBFE936F10721F0C89531965C
:1401A6000D92F9CF0E946401FFCF0E94D31288E18AB9089539
:1401BA000E94081BB9015801C88444276030E0E07E0734F4A5
:1401CE0041E022243324261A370AB10113C02AE030E08B01B3
:1401E2000E94631AEC2DFF27E7FDF095EA0DFB1D00832AE0A6
:1401F60030E08B010E94671AB801CA948C2D803054F7442304
:14020A0019F08FE2F50180830C94111B0091AD00063021F01C
:14021E000E3011F0003110F001E001C0002708953A932A936C
:140232004A935A93A8012697EDDF002309F425C084E0888348
:1402460006E710E00E94231BCE0108969A938A930E94AB1DC6
:14025A000E94DC1B98018E010F5F1F4FA9DF89818F3221F48B
:14026E008FE2FA01808303C02A80FA0120822B80FA012182BA
:140282008C81865F82832D802382269659914991229608954A
:140296000E94E21A580126974DEB52E084E0888395018E01A2
:1402AA000F5F1F4F85DF88E1FA0184832B8025822C802682EF
:1402BE002D80278226960C94E71A289741E750E014D10E94DB
:1402D200AD0400270E948106929822242092600024D10E94FE
:1402E600900796DF002309F401C181E28093BD0285E2809367
:1402FA00BE028DE28093BF028091B00080538093C0020E94E2
:14030E002C19F0C0A8954DDF0E945F170E948A0D8091AD006E
:140322008A3019F40E9411063EC074DF002309F43AC0222496
:14033600309061002314ACF5209261004090850150908601EA
:14034A0020908301309084014882598291010DEB12E068DFBE
:14035E000E942C1960916000633011F0663079F4409061018A
:140372005090620120905F013090600148825982910101ECDF
:1403860012E052DF0EC040909B0050909C0020909900309082
:14039A009A0048825982910101EC12E043DF03E710E00E9401
:1403AE00361AA02E002329F40E94B7190E94AD049CD0A0907C
:1403C2007100B0907200A0FC06C0A1FC04C0A2FC02C0A3FE40
:1403D6000BC01EDFA02E002321F0FA010081118157DF0E9463
:1403EA00B40282C06091600077276030670709F16130E0E0CF
:1403FE007E0719F16230E0E07E0799F16330E0E07E0791F1A1
:140412006430E0E07E0739F16530E0E07E0739F16630E0E079
:140426007E0719F16730E0E07E0741F16830E0E07E0709F14E
:14043A005BC0222420925E010E94B40255C00E947907A02EDF
:14044E00002329F082E08093600069D04BC084E680935E0169
:140462000E94A80245C0222420925E0141C00E94510C3EC0E0
:140476000E94510C3BC001E00E94B60620907D0130907E01CC
:14048A0040907F0150908001241435046CF10E94E206A02E87
:14049E00002319F461E070E002C0662777278DE990E09F8394
:1404B2008E836C8340909B0050909C002090990030909A00AC
:1404C600288239824A825B8220918501309186010091830180
:1404DA00109184010E94D90AA02E002321F0F8940E94A0197A
:1404EE00FFCF1DD00FCF289608950E94B4020E94B71920908C
:14050200A3003090A40030927C0120927B0184E690E0909374
:14051600800180937F012224332430927E0120927D010C940F
:14052A009007F8942224332430927E0120927D0178940895E3
:14053E008091BE008F5F8093BE008F708093BE00089500911D
:14055200AD00063011F4959805C0003110F0C69801C0C4980F
:1405660008950091AD00063011F4959A05C0003110F0C69AE6
:14057A0001C0C49A08958D9AB99A8B98939A8C98949A8E986F
:14058E00969A8F98979A08950E94EC1A4091AD00A090B1002D
:1405A20022242BBA2ABA28BA27BA25BA24BA22BA21BA8A9ADB
:1405B600642F77276030670781F16130E0E07E0731F1623006
:1405CA00E0E07E0719F16330E0E07E07F9F06430E0E07E0734
:1405DE00D9F06530E0E07E07B9F06630E0E07E07F1F067306A
:1405F200E0E07E07A1F06830E0E07E07B9F16A30E0E07E07B9
:1406060099F16E30E0E07E0709F453C038C0A99A8FEF84BB6B
:14061A008BBB22242ABABF9ABC9AB89AACDFC79A46C0B89A17
:14062E00B99ABA9AAA2019F48C9ABB9A01C08F9ABC9A8D9A58
:140642008B9A8B9A939AD69ADE9A0E94B318D39AD29AD19896
:14065600D99AD098D89AD598DD9AD498DC9A8FEF85BB222479
:14066A0024BA25C0BC9AA19AA29AA49AA998AA98AC98A698A9
:14067E00AE9A7FDF1AC00E94A818BE9ABD9ABF9AB89AAA2062
:1406920019F4BB98C39A02C0A098A89ABC98C49AB998C19AFD
:1406A600BA98C29AC69A22242ABA8FEF8BBB8EEF84BB463012
:1406BA0019F4D69ADE9A04C04E3010F4BA9AC29AAA2009F07E
:1406CE00BB9A0C94F31A2090B100222049F4222423BE88E3A4
:1406E20082BF88EC8CBF82E083BF08C0222423BE8CEF82BFB5
:1406F60084E08CBF89E183BF089522242EBC8FEF8DBD88E395
:14070A008CBD2BBC88EC8ABD29BC88BD27BC86BD2FBC82E053
:14071E008EBD08954A935A93402F552740304507E9F0413024
:14073200E0E05E07E9F04230E0E05E07E9F04330E0E05E07AD
:14074600E9F04430E0E05E07E9F04530E0E05E07E9F046306B
:14075A00E0E05E07E9F04730E0E05E07E9F01FC0A998AA98B6
:14076E00AC981BC0A99AAA98AC9817C0A998AA9AAC9813C01C
:14078200A99AAA9AAC980FC0A998AA98AC9A0BC0A99AAA98B0
:14079600AC9A07C0A998AA9AAC9A03C0A99AAA9AAC9A5991FD
:1407AA00499108954A935A934091AD000E943A174A3009F412
:1407BE0032C055274F7050704130E0E05E07C9F04230E0E0B9
:1407D2005E07C9F04330E0E05E0799F04430E0E05E0799F0B2
:1407E6004530E0E05E07B1F04630E0E05E07B1F04730E0E051
:1407FA005E0781F012C08BD110C00DD20EC0D6D10CC04AD2DB
:14080E002090BE00222039F4F8D005C05BD203C09AD101C050
:140822000BD28091BB008F5F8093BB00843679F5222420923D
:14083600BB0080917D0190917E01019690937E0180937D01FA
:14084A00809164008150809364008823E1F4809161008F5FFD
:14085E00809361008AE0809364008091650081508093650072
:14087200809163008F5F8093630020906500222031F48AE0B4
:140886008093650081E0809362005991499108950A921A9267
:14089A002A923A924A925A926A927A928A929A920A931A9360
:1408AE002A933A938A939A93AA93BA93EA93FA930FB60A926D
:1408C2008FEF8DBD88E38CBD71DF09900FBEF991E991B991A2
:1408D600A9919991899139912991199109919990899079907D
:1408EA00699059904990399029901990099018950A921A9286
:1408FE002A923A924A925A926A927A928A929A920A931A93FC
:140912002A933A938A939A93AA93BA93EA93FA930FB60A9208
:1409260088E382BF41DF09900FBEF991E991B991A9919991D9
:14093A0089913991299119910991999089907990699059909A
:14094E00499039902990199009901895F8941CDEBADE1DD040
:1409620027D001DE222425BE2BBE929A0091B1000E94CF17A3
:140976000023D1F30E9444120023E1F392982090B1002220CA
:14098A0019F481E089BF03C0B6DE84E089BF789408952224B1
:14099E002AB82BB886E880BD87E689B920BC88E18AB9089501
:1409B200A8958DE081BD08954A93442707FF01C0416006FFF7
:1409C60001C0426005FF01C0446004FF01C0486003FF01C022
:1409DA00406102FF01C0406201FF01C0406400FF01C0406837
:1409EE00042F4991089585B3837885BB202E220C220C35B247
:140A0200322835BA08950E94D71A22970024098267C029802F
:140A1600220C28828FEB90E0E22DFF27E80FF91FE08080ECFA
:140A2A0090E0E22DFF27E80FF91F4081AA24CC2400240882D7
:140A3E0039C06881660F01E018810E94371B2E2C202231F022
:140A5200162F1F5F01E00E94371BA02A01E018810E94371BC0
:140A6600242E202229F001E0162F0E94371BA02A18811C5FD7
:140A7A0001E00E94371B2E2C202231F0162F1F5F01E00E9490
:140A8E00371BC02A18811C5F01E00E94371B242E202229F082
:140AA20001E0162F0E94371BC02A08800394088288818430D6
:140AB60020F280E091E0E981FF27EE0FFF1FE80FF91FC0824D
:140ACA0081E091E0E981FF27EE0FFF1FE80FF91FA0820980E1
:140ADE00039409828981883008F495CF22960C94CC1AAA9246
:140AF200BA9287E090E05C01A01AB10AAA0CBB1CAA0CBB1CE1
:140B060085B3837E85BB25B22A2825BAB990A9900895AF9AF2
:140B1A0080E091E0E091BE00FF27E80FF91F29B2208208DD30
:140B2E008091BE00883030F4AD9AAE98082F1127D8DF08C08D
:140B4200AD98AE9A0091BE00112708501040CFDF08954A93BB
:140B56004091BE00A998483050F409B32BDF80E091E0E42F55
:140B6A00FF27E80FF91F00830DC0403158F0483148F409B3C8
:140B7E001DDF88EF90E0E42FFF27E80FF91F008343954F711D
:140B9200042F2FDF4093BE00499108958FE0801B082F000FB6
:140BA600000F85B3837C85BB25B2202A25BA08954A9340916A
:140BBA00BE008091BC008F5F8093BC00833008F428C0222402
:140BCE002092BC00403150F480E091E0E42FFF27E80FF91FD7
:140BE20029B22094208209C080EE90E0E42FFF27E80FF91FDF
:140BF60029B22094208243954F71403128F4AE98AF98042FD5
:140C0A00C9DF05C0AE9AAF9A042F0051C3DF4093BE00499147
:140C1E00089508959E9909C080910001883C28F48091000184
:140C32008F5F8093000108950091BE00083018F427E0201B3A
:140C460002C027E1201B80E091E0E22FFF27E80FF91F23B2A9
:140C5A00208203950F7088B3887F88BB2091B100083058F462
:140C6E0028B2202A28BA222319F4949AC39A01C0979AC49841
:140C82000CC0802F885028B2282A28BA222319F4949AC39822
:140C960001C09798C49A0093BE0008952090BE003324EFE07A
:140CAA00F0E0E219F3098FEB90E0E80FF91F29B2208240DCDD
:140CBE008AE790E0E091BE00FF27E80FF91F249025BA0895AD
:140CD2002090BE003324EFE0F0E0E219F30980E091E0E80FEB
:140CE600F91F29B2208228DC8AE790E0E091BE00FF27E80F34
:140CFA00F91F249025BA08954A934091AD00002379F04E3039
:140D0E0011F4DE9819C0463011F4939815C0403110F0C59834
:140D220011C0B89AC0980EC04E3011F4DE9A0AC0463011F434
:140D3600939A06C0403110F0C59A02C0B89AC09A4991089501
:140D4A00AA92A02EAA2011F0FEDB01C008DCA99008950895CF
:140D5E000895002311F4A99A01C0A99808954A934091AD007F
:140D7200463031F4002311F0DE9807C0DE9A05C0002311F010
:140D8600C29801C0C29A49910895C79902C001E001C0002780
:140D9A0008950091AD00063021F4939B0CC001E00BC0003148
:140DAE0020F0C59906C001E005C0C09B02C001E001C0002771
:140DC20008950091AD00063021F4DE9B0AC001E009C00031D9
:140DD60010F001E005C0C29B02C001E001C00027089500914D
:140DEA00AD000E3011F4D99A09C0063011F4DA9A05C0003124
:140DFE0010F0C09A01C0C19A08950091AD000E3011F4D998DC
:140E120009C0063011F4DA9805C0003110F0C09801C0C198EE
:140E260008950091AD000E3011F4D89A09C0063011F4DB9AAF
:140E3A0005C0003110F0C79A01C0959A08950091AD0006304C
:140E4E0011F4DB9805C0003110F0C79801C0959808950091A7
:140E6200AD00063019F409B3017007C0003118F006B3007135
:140E760002C000B3007108950091AD00063019F409B3007137
:140E8A0007C0003118F006B3047002C000B30078089500910C
:140E9E00AD00063019F409B302700EC0003150F02090B10082
:140EB200222019F406B3087005C003B3017002C000B30870D3
:140EC60008950091AD00063019F409B3007207C0003118F0CC
:140EDA0006B3027002C000B300740895002311F4C79801C00B
:140EEE00C79A0895AA92BA92209185013091860100918301D6
:140F02001091840187EB90E09A938A930E94DB1D14F001E00A
:140F160001C00027B990A9900895AA92BA9220906000822D79
:140F2A00823011F0853089F440909B0050909C00209099009E
:140F3E0030909A003092600120925F01509262014092610197
:140F52004AC020906000822D833011F08630B9F54090850154
:140F66005090860120908301309084013092600120925F0162
:140F7A0050926201409261012091B9003091BA000091B700BD
:140F8E001091B80083E891E09A938A930E94D21B18012901FE
:140FA20000915C0110915D010E94101C3A932A931A930A93AC
:140FB600810192010E943B1C109359010093580130935B0111
:140FCA0020935A010CC002EA10E00E94231B109360010093E6
:140FDE005F01309362012093610103D0B990A99008950E94D0
:140FF200E206002359F100919D0010919E000E94101C1093B8
:14100600640100936301309366012093650100919F00109166
:14101A00A0000E94101C109368010093670130936A0120936C
:14102E0069010091A1001091A2000E94101C10936C0100935E
:141042006B0130936E0120936D012AC00091A5001091A60074
:141056000E94101C1093640100936301309366012093650176
:14106A000091A7001091A8000E94101C10936801009367011C
:14107E0030936A01209369010091A9001091AA000E94101CC0
:1410920010936C0100936B0130936E0120936D01089502EA5F
:1410A60010E00E94231B1093700100936F0130937201209366
:1410BA00710102EA10E00E94231B1093740100937301309312
:1410CE0076012093750102EA10E00E94231B10937801009303
:1410E200770130937A012093790108950E945E1AAA9260972D
:1410F600A98C40905A0150905B0120905801309059012C8675
:14110A003D864E865F86209161013091620100915F0110918C
:14111E006001CE0141969A938A930E94D21B088319832A8309
:141132003B83AA2009F454C0DBDE002321F4809160008330FB
:1411460049F0D4DE002309F449C080916000863009F044C05D
:14115A008FE591E00EE910E00E94231B9A938A930E94DB1DF1
:14116E005CF5409061015090620120905F01309060010AE983
:1411820010E00E94231B3A932A931A930A93810192010E94FE
:14119600E61DB4F4209161013091620100915F011091600170
:1411AA00CE010C969A938A930E94BD1B1093600100935F0105
:1411BE003093620120936101088119812A813B81CE010C96E7
:1411D2009A938A930E94BD1B088319832A833B830881198190
:1411E6002A813B818FE691E09A938A930E94D21B08871987A0
:1411FA002A873B87088119812A813B8183E691E09A938A93C0
:14120E000E94DB1D3CF5CE011C0102EA10E00E94231B83E6F0
:1412220091E09A938A930E94D21B3A922A920E94DB1DB4F4A4
:141236002091790130917A010091770110917801CE019A931E
:14124A008A930E94BD1B109378010093770130937A012093E1
:14125E0079010CC002EA10E00E94231B109378010093770153
:1412720030937A0120937901288039804A805B8030927001C4
:1412860020926F0150927201409271012091790130917A0132
:14129A00009177011091780187E691E09A938A930E94451CF2
:1412AE00810192010E94C71B83E691E09A938A930E94321C7F
:1412C2000C831D832E833F832C803D804E805F8020916D0141
:1412D60030916E0100916B0110916C01CE0108969A938A9312
:1412EA000E94AB1D83E691E09A938A930E94451C810192014A
:1412FE000E94C71B0C831D832E833F8306E910E00E94231BF7
:14131200CE0104969A938A930E94AB1D0C831D832E833F8308
:14132600CE0104961C0102E910E00E94231B3A922A920E9448
:14133A00DB1D24F08CE980935E011DC02C803D804E805F80B9
:14134E0006E910E00E94231B3A932A931A930A9381019201E3
:141362000E94E61D24F084E680935E0108C00C811D812E8140
:141376003F810E94DC1B00935E016096A990249608952AE286
:14138A0030E00EE211E00E94B617222420922D0133243092B0
:14139E002C0120922B0108950E945E1A0E94D71A24972E8479
:1413B2003F8448885988288239824A825B826EE271E0CC2414
:1413C600C39416C007E01C2D01031001260E371EF10136965A
:1413DA008081813051F4088119812A813B813A922A920E9454
:1413EE00DB1D0CF404C0C3948C2D863038F38C2D8F5FE82E81
:1414020017C007E01E2D01031001260E371E2101F101268075
:14141600222059F40081118122813381CE019A938A930E940E
:14142A00DB1D0CF404C0E3948E2D863030F38E2D8F5FA82E68
:14143E0016C007E01A2D0103A001460F571FFA01369680815E
:14145200813051F4088119812A813B815A934A930E94DB1DA2
:141466000CF404C0A3948A2D863038F38A2D863008F096C024
:14147A0007E0182F0103F001E60FF71F3796248035802220C8
:14148E0019F4332009F488C00A88002009F03FC01C2D0103AE
:1414A200F001E60FF71F20803180428053801E2D01033001D4
:1414B600660E771E810192017A926A920E94D21B0E94DC1BD4
:1414CA00EC89FD89118300838081918101969183808307E054
:1414DE001C2D0103F001E60FF71F248035801A2D0103F0011C
:1414F200E60FF71F4480558042185308EC89FD8953824282F9
:1415060026E030E0028113810E94671AEC89FD891583048367
:14151A0043C007E01C2D0103F001E60FF71F20803180428077
:14152E0053801E2D01033001660E771E810192017A926A9230
:141542000E94D21B0E94DC1BEC89FD8911870087CF010896E5
:141556007C01FC018081918101969183808307E01C2D010312
:14156A00F001E60FF71F248035801A2D0103F001E60FF71FD1
:14157E004480558042185308EC89FD895386428626E030E059
:14159200028513850E94671AEC89FD891587048701E001C03F
:1415A600002724960E94CC1A249608950E945E1A0E94D71AC4
:1415BA002897AA8CCC8CDD8CE0902D0140912B0150912C01BE
:1415CE006EE271E04F5F5F4F50932C0140932B010A891B89C6
:1415E2002C893D89CE0146969A938A930E94DB1D3CF0002798
:1415F6000E94A506222420925E0106C001E00E94A50684E6DF
:14160A0080935E014035E6E45E0714F002E019C140902901FC
:14161E0050902A01209027013090280102EA10E00E94231B30
:141632003A932A931A930A93810192010E94E61D71F42A88FF
:141646003B884C885D88309228012092270150922A01409270
:14165A0029010027F6C00A891B892C893D8987E291E09A93BC
:14166E008A930E94D21B0C831D832E833F832C803D804E80E3
:141682005F800EE810E00E94231B3A932A931A930A93810159
:1416960092010E94E61D6CF4CE0104960AE810E00E94231B7D
:1416AA009A938A930E94DB1D14F40027CAC0CE014296209137
:1416BE00290130912A0100912701109128019A938A930E9493
:1416D200DB1D0CF04CC007E01E2D0103F001E60FF71F26802C
:1416E600222029F10103F001E60FF71F00811181228133812A
:1416FA00CE0142969A938A930E94DB1D0CF088C007E01E2DDB
:14170E000103F001E60FF71F2A883B884C885D882082318244
:14172200428253820103F001E60FF71F5583448373C0E394D1
:14173600E0922D0107E01E2D0103F001E60FF71F2A883B8858
:14174A004C885D8820823182428253820103F001E60FF71FE4
:14175E00558344830103F001E60FF71F81E0868355C00A89C6
:141772001B892C893D8987E291E09A938A930E94DB1D0CF08A
:1417860049C007E01E2D0103F001E60FF71F26802220E9F053
:14179A00E394E0922D011E2D0103F001E60FF71F2A883B8864
:1417AE004C885D8820823182428253820103F001E60FF71F80
:1417C200558344830103F001E60FF71F2224268223C007E0BC
:1417D6001E2D01031001260E371E0A891B892C893D893A9298
:1417EA002A920E94DB1DA4F407E01E2D0103F001E60FF71FCB
:1417FE002A883B884C885D8820823182428253820103F001C6
:14181200E60FF71F558344832A883B884C885D8830922801FF
:141826002092270150922A0140922901DB82CA82A8820E8961
:14183A001F89288D398DB2DD002311F4002701C001E0289639
:14184E000E94CC1A249608950E94DB1AC0907D01D0907E0163
:14186200A0905E011AE00A2D0E949D1AE02E1AE00A2D0E9478
:141876009F1AA02E1AE00C2D0E949F1A0E1508F4A3941AE0F9
:14188A000C2D0E949D1A0A1518F40E94A80202C00E94B40227
:14189E000C94C51AAA924A93259720906000822D843021F05E
:1418B200853011F0863071F580915E018030ECF4282E3324A3
:1418C60027FC3094442455244218530820907D0130907E0124
:1418DA004214530444F00E94E206002321F001E00E94810651
:1418EE0003C000270E9481060E94B40218C00E94E206A02E4B
:14190200002329F4A7DF00270E9481060EC00E94B4020BC0CA
:1419160080915E01803014F09BDF02C00E94B40200270E943C
:14192A00810680917D0190917E018436E0E09E070CF10E9435
:14193E00960240916000433011F0463011F441E001C0442790
:141952004C834090B9005090BA002090B7003090B800288206
:1419660039824A825B822091850130918601009183011091D4
:14197A008401B8DB25964991A99008950E94EC1A42EF5FEAB4
:14198E006627772719C0F80121908F01332442255325AA2403
:1419A2000CC040FF07C05695479581E090EA4827592702C00C
:1419B60056954795A3948A2D883088F36F5F7F4F62177307A6
:1419CA0020F38A010C94F31A0FEFFCD30FEFFAD30FEFF8D35D
:1419DE000FEFF6D30FEFF4C30E94081BC02E2A97442727C0B3
:1419F2000AE01C2D0103100187E891E0280E391EE42FFF27F3
:141A06003196EE0FFF1FE20DF31DA080B18001031001280E4F
:141A1A00391EE42FFF27EE0FFF1FE20DF31DB182A082CE01EA
:141A2E00E42FFF27EE0FFF1FE80FF91FB182A08243954430A0
:141A4200B8F20AE01C2D01038FE891E0F001E80FF91F318313
:141A5600208339872887442738C0CE01E42FFF27EE0FFF1FE4
:141A6A00E80FF91FA080B180642F6F5F28C0CE01E62FFF27B5
:141A7E00EE0FFF1FE80FF91F208031802A143B04D8F4CE01C1
:141A9200E62FFF27EE0FFF1FE80FF91F20803180CE01E42FA8
:141AA600FF27EE0FFF1FE80FF91F31822082CE01E62FFF277D
:141ABA00EE0FFF1FE80FF91FB182A0826395653008F4D5CF6C
:141ACE004395443008F4C5CF0C811D812A960C94111BAA9235
:141AE20082E020907400821530F00E943007002369F0002737
:141AF6000CC00E943007002329F40E943F07A02E002311F01D
:141B0A00002701C001E0A99008950E94EC1A289746E151E069
:141B1E006091740080E69AEEA0E0B0E0209067003090680011
:141B32004424552482159305A405B5055CF42224209266007E
:141B46003324309268002092670000270E94A506A0906600E7
:141B5A00BB24AA2011F4BB2051F1C5018130E0E09E0709F4D3
:141B6E002FC08230E0E09E0709F438C08330E0E09E0709F453
:141B820041C08430E0E09E0709F455C08530E0E09E0709F40C
:141B960099C18630E0E09E0709F4A2C18730E0E09E0709F44D
:141BAA00ABC18830E0E09E0709F4C0C100C00CDF81E0809301
:141BBE006600222433243092680020926700F7C200E2FED262
:141BD20008E0FCD282E08093660022243324309268002092F5
:141BE6006700E9C200E1F0D20EE5EED22224332430926800BC
:141BFA002092670083E080936600DBC26CDF002351F4809181
:141C0E0067009091680001969093680080936700CEC2222460
:141C22003324309268002092670008E3CFD284E080936600AB
:141C3600C2C253DF002351F4809167009091680001969093C1
:141C4A00680080936700B5C22224332430926800209267004D
:141C5E008E01D0D2A02E002309F4A9C28AE694EF2880398094
:141C72002816390608F435C0809171009091720081609093D7
:141C860072008093710000E111E00E94231BFA010083118390
:141C9A00228333836130A1F48091710090917200826090939B
:141CAE00720080937100846090937200809371008860909324
:141CC200720080937100A6C0623009F0A3C080917100909121
:141CD60072008460909372008093710099C08BE490E12880AA
:141CEA0039808215930508F435C08091710090917200816017
:141CFE0090937200809371000CE011E00E94231BFA0100837E
:141D12001183228333836130A1F480917100909172008260B1
:141D26009093720080937100846090937200809371008860AB
:141D3A00909372008093710069C0623009F066C08091710020
:141D4E0090917200846090937200809371005CC08091710053
:141D6200909172008E7F909372008093710022270881198148
:141D7600E2D2FA010083118322833383623089F420803180D8
:141D8A0042805380208631864286538680917100909172009D
:141D9E008B7F9093720080937100613009F034C0809171000E
:141DB200909172008D7F90937200809371008B7F90937200C6
:141DC60080937100877F9093720080937100FA01208031801A
:141DDA00428053802C823D824E825F822C803D804E805F802C
:141DEE00248235824682578220863186428653862486358680
:141E02004686578630928401209283015092860140928501E5
:141E1600613021F4222420926600CDC1643009F046C08AE623
:141E2A0094EF2A803B802816390698F08091710090917200A2
:141E3E008460909372008093710000E111E00E94231BFA01E6
:141E520000871187228733872CC08BE490E12A803B80821532
:141E6600930598F080917100909172008460909372008093A7
:141E7A0071000CE011E00E94231BFA010087118722873387A9
:141E8E0012C080917100909172008B7F909372008093710036
:141EA20022E00A811B8149D2FA0100871187228733878EDD00
:141EB60085E08093660022243324309268002092670079C120
:141ECA0001E280D108E07ED1222433243092680020926700B9
:141EDE0086E0809366006BC101E172D10EE570D122243324EF
:141EF200309268002092670087E0809366005DC1EEDDA02E02
:141F0600002351F48091670090916800019690936800809329
:141F1A0067004FC122243324309268002092670009E350D14F
:141F2E0088E08093660043C1D4DDA02E002351F4809167005B
:141F4200909168000196909368008093670035C122243324D3
:141F560030926800209267008E0150D1A02E002309F429C1AC
:141F6A0033DD81E08093660022243324309268002092670099
:141F7E008AE694EF288039802816390640F1809171009091AA
:141F920072008260909372008093710000E111E00E94231B1C
:141FA600FA010483158326833783623009F085C08091710058
:141FBA00909172008860909372008093710000E111E00E940B
:141FCE00231BFA01048715872687378772C08BE490E128807A
:141FE20039808215930540F1809171009091720082609093B8
:141FF6007200809371000CE011E00E94231BFA01048315830A
:14200A0026833783623009F056C080917100909172008860C1
:14201E0090937200809371000CE011E00E94231BFA01048752
:1420320015872687378743C080917100909172008D7F90934C
:14204600720080937100623029F4877F9093720080937100C2
:14205A0021E0088119816DD1FA010483158326833783623001
:14206E0041F5248035804680578024863586468657860081A3
:14208200118122813381CF0104969A938A930E94BD1B18011A
:14209600290108E011E00E94231B3A932A931A930A938101FD
:1420AA0092010E943B1C10938401009383013093860120935A
:1420BE008501623021F481E08093660078C0643009F075C00D
:1420D2008AE694EF2A803B802816390698F0809171009091FA
:1420E60072008860909372008093710000E111E00E94231BC1
:1420FA00FA01048715872687378758C08BE490E12A803B80E8
:14210E008215930598F0809171009091720088609093720074
:14212200809371000CE011E00E94231BFA0104871587268799
:1421360037873EC08091710090917200877F90937200809316
:14214A00710023E00A811B81F4D0FA01048715872687378795
:14215E000081118122813381CF0104969A938A930E94BD1BD5
:14217200CA0108969A938A930E94BD1BCA010C969A938A9375
:142186000E94BD1B1801290104E011E00E94231B3A932A9349
:14219A001A930A93810192010E943B1C10938401009383019A
:1421AE00309386012093850181E08093660028960C94F31A55
:1421C200A89500000000000000000895AA924A93A02EF6DF73
:1421D60044270FC00E942407A7FE03C00E94F40602C00E9486
:1421EA000407AA0CE9DF0E941407E6DF4395483078F3499141
:1421FE00A99008950E94EC1AA80122243324FA0131822082B9
:142212003382228266272EC00E942407D1DFCA010296FC0107
:1422260020803180220C331C31822082FA0120803180220C07
:14223A00331C318220820E946407002341F0CA010296FC012B
:14224E00808191810196918380830E944E07A02E002331F0B2
:14226200FA01808191810196918380830E941407A7DF639571
:14227600603108F4CFCF01E00C94F31A0E945E1AAA922C9782
:14228A00A98889E890E0EA2DFF27EE0FFF1FEE0FFF1FE80FC4
:14229E00F91F20803180428053802C823D824E825F8289E7A0
:1422B20090E0EA2DFF27EE0FFF1FEE0FFF1FE80FF91F208086
:1422C600318042805380288239824A825B820C811D812E81D6
:1422DA003F81CE019A938A930E94D21B088719872A873B87E6
:1422EE000D851E852F853889CE0108969A938A930E94AB1D11
:142302001801290100E011E00E94231B3A932A931A930A93FF
:14231600810192010E943B1CCE019A938A930E94BD1B85E7A6
:14232A0090E09A938A930E94BD1B2C96A990249608950E9477
:14233E00FA1AA22E68012D9796010A2D4DDB680144270FC0E1
:1423520086EA90E0E42FFF27EE0FFF1FE80FF91F25903490BB
:14236600C214D30408F403C04395493278F30CEF10E00E94AC
:14237A00231B18012901042F11270E94101C3A932A931A935E
:14238E000A93810192010E94B51D1801290108EF10E00E9449
:1423A200231B3A932A931A930A93810192010E94C71B0D83EC
:1423B6001E832F83388786EA90E0E42FFF27EE0FFF1FE80FD6
:1423CA00F91F859094900CEF10E00E94231B1801290184011B
:1423DE000C191D090E940E1C3A932A931A930A9381019201EB
:1423F2000E94B51D1801290186EA90E0E42FFF273197EE0F42
:14240600FF1FE80FF91F659074908401061917090E940E1C0C
:14241A003A932A931A930A93810192010E943B1C09871A879B
:14242E002B873C870D811E812F813885CE0109969A938A93D3
:142442000E94D21B09831A832B833C83A88209811A812B8166
:142456003C8114DF29803A804B805C803A932A931A930A93E4
:14246A00810192010E94C71B09831A832B833C8309811A810A
:14247E002B813C812D960C94011B5E9902C0002702C05E9AC8
:1424920001E00895AA92A02E7AD52090B5012092B8012090DE
:1424A600B6012092B901A092BA01A990089500E1EFCF00E2BB
:1424BA00EDCF0E94E21A580185010E94101C1801290100E2E2
:1424CE0011E00E94231B3A932A931A930A93810192010E949E
:1424E200E61D14F041E001C04FEF85010E94101C1801290128
:1424F6000CE111E00E94231B3A932A931A930A93810192012B
:14250A000E943B1C1801290108E111E00E94231B3801490144
:14251E00042F112707FD10950E94101C3A932A931A930A93F3
:14253200830194010E94C01D810192010E94C71B0C94E71AC3
:142546000E94EC1AA80168EB71E086EB91E05A01A80EB91EC2
:14255A009A01225030408B010E94C30CF501118300832224A0
:14256E0033243092700020926F005093B0014093AF01929A6C
:142582000C94F31AE091B301F091B4010081118194DF109314
:142596009A000093990030939C0020939B0008950E94081B5C
:1425AA0022242092B701A8952090690030906A00F1018281F8
:1425BE008031F1F423E130E08F010E94C30CE0916900F09103
:1425D2006A00238834880215130581F421802092B6012080D6
:1425E6002092B501CF0103969093B4018093B3012224209279
:1425FA00B20150C040916B0050916C00FA0182818831F9F4DD
:14260E002BE130E08F010E94C30C5801E0916B00F0916C0079
:14262200238C348C0215130581F421802092B6012080209235
:14263600B501CF0103969093B4018093B30122242092B20127
:14264A0029C040916D0050916E00FA018281813809F009C489
:14265E0024E830E08F010E94C30C5801E0916D00F0916E0025
:14267200EC57FF4F20803180E458F0400215130509F0F5C326
:1426860022242092B20141815527413F19F0423F09F0EBC3A6
:14269A00F894FFCF2090B5012220C9F44091B60155274F3FDB
:1426AE00E0E05E0709F0DDC3E091B301F091B40120802092AD
:1426C200B00000E1E7DE2090B0002092B801F3D30E94A019C2
:1426D600CCC32090B0003090B501321409F0F7C24091B6010B
:1426EA0055274C37E0E05E0709F413C24D37E0E05E0709F440
:1426FE002CC24238E0E05E0709F4C7C04338E0E05E0709F41A
:14271200A1C14638E0E05E0709F478C14738E0E05E0709F4D7
:14272600B0C04838E0E05E0709F494C04D38E0E05E0709F492
:14273A0077C04E38E0E05E0709F483C04F38E0E05E0709F4C0
:14274E0050C08FE890E084179507BCF04033E0E05E070CF405
:14276200B5C280E490E0841795070CF4AFC284E590E0FA019C
:14277600F097EE0FFF1FE80FF91F25903490F1010994413E17
:14278A00E0E05E0749F1423EE0E05E07A9F0433EE0E05E07F8
:14279E0009F096C2E091B301F091B40120802092B10081DE19
:1427B2002090B1002092BB010E94A0197CD357C3E091B3015B
:1427C600F091B40120802092AD0071DE2090AD002092BB01B0
:1427DA000E94A0196CD347C368DE2090AD002092BB0165D3FE
:1427EE0040C300E451DE4427552710C02090CF003090D000FB
:14280200FA01E20DF31D20808BEB91E0FA01E80FF91F208295
:142816004F5F5F4F4034E0E05E0760F305E410E08FDE23C33A
:14282A00E091B301F091B40120802092740084E0821510F47A
:14283E008093740038DE0E94A01937D312C333DE209074007A
:142852002092BB0130D30BC301E00E94B60688E08093600019
:142866008FDE0E94C40996D300C3E091B301F091B40120805B
:14287A0020922601022D0E94B0068AD3F4C287E080936000FD
:14288E007BDE0E94C40982D3ECC2E091B301F091B40100818F
:1428A2000E94B6060E94F80704DE0E94E206A02EA092BB01FB
:1428B60000D3DBC2FCDD6BEB71E04427552704E111E00E94BF
:1428CA00231B86E191E01A01220C331C220C331C280E391E42
:1428DE003A922A920E94AB1D0E94DC1BFA01EE0FFF1FE60F50
:1428F200F71F118300834F5F5F4F4430E0E05E0704F3A09089
:1429060060008A2D833011F0863081F40CE111E00E94231B09
:14291A008FE591E09A938A930E94AB1D0E94DC1BFB011187E3
:14292E0000870FC00CE111E00E94231B89E990E09A938A9355
:142942000E94AB1D0E94DC1BFB01118700872224FB01238678
:142956000E94CE06A02E002331F0CB010B96FC018081816099
:14296A0080830E94C806A02E002331F0CB010B96FC01808169
:14297E00806180830E94E206A02E002339F0CB010B965C01F3
:14299200FC0180818260808320906000FB01228620905E018B
:1429A6002486E1E7F0E020803180FB013786268680D25BC2B6
:1429BA00222420926000E2DD0E945208222420925E01E6D2E7
:1429CE0050C284E680935E0181E080936000D4DD40909B0017
:1429E20050909C002090990030909A003092B8002092B700DF
:1429F6005092BA004092B9000E9496020E9490070E94520837
:142A0A00C7D231C2BBDD40909B0050909C00209099003090A4
:142A1E009A003092B8002092B7005092BA004092B9008091EF
:142A3200B601863821F485E08093600003C082E08093600096
:142A46000E9496020E9490070E945208A3D20DC28091B60101
:142A5A00833321F483E08093600003C086E0809360008CDDC2
:142A6E0040909B0050909C002090990030909A003092B80050
:142A82002092B7005092BA004092B900E091B301F091B40155
:142A9600228133810CE310E00E94B51A10935D0100935C0194
:142AAA000E9496020E94900773D2DDC1FEDC442755270EC033
:142ABE008DE990E0FA01E80FF91F20808BEB91E0FA01E80F9B
:142AD200F91F20824F5F5F4F4031E0E05E0770F3EAD1C5C1A0
:142AE600442755272090B3013090B401FA01E20DF31D208082
:142AFA008DE990E0FA01E80FF91F20824F5F5F4F4E30E0E09C
:142B0E005E0764F3D0DC0E94A019CFD1AAC1E091B301F0913F
:142B2200B40100811181C9DC109376000093750030937800D6
:142B360020937700BCDC03E710E00E94361AA02E002319F003
:142B4A000E94A01902C00E94B719B1D18CC1ADDC0CE111E0B2
:142B5E000E94231B85E790E09A938A930E94AB1D0E94DC1B5A
:142B7200EBEBF1E0118300839ED179C1442755272090B3019D
:142B86003090B401FA01EE0FFF1FE20DF31DA080B18080914F
:142B9A00B601873381F485018CDC89E790E0FA01EE0FFF1F5D
:142BAE00EE0FFF1FE80FF91F00831183228333830FC0850122
:142BC2007CDC89E890E0FA01EE0FFF1FEE0FFF1FE80FF91F86
:142BD60000831183228333834F5F5F4F4430E0E05E070CF484
:142BEA00CBCF63DC03E710E00E94361AC02E002319F00E9476
:142BFE00A01902C00E94B71958D133C154DC44275527809191
:142C1200B6018933A9F40CE111E00E94231B89E790E01A01E5
:142C2600220C331C220C331C280E391E3A922A920E94AB1D21
:142C3A000E94DC1B580114C00CE111E00E94231B89E890E021
:142C4E001A01220C331C220C331C280E391E3A922A920E94A6
:142C6200AB1D0E94DC1B58018BEB91E0FA01EE0FFF1FE80FB0
:142C7600F91FB182A0824F5F5F4F4430E0E05E070CF4C3CF56
:142C8A0016D1F1C0E091B301F091B40100810E9473070BDCBF
:142C9E00E091B301F091B40120802092BB0105D1E0C0E091D2
:142CB200B301F091B40100810E948106FADB0E94CE06A02E61
:142CC600A092BB01F6D0D1C0F2DBF3D0CEC08091B000815302
:142CDA008F5B2090B501281609F0C5C06091B60177276834F8
:142CEE00E0E07E0709F457C088E490E08617970784F060315D
:142D0200E0E07E0709F45EC06031E0E07E070CF4AEC06F3377
:142D1600E0E07E0709F499C0A8C06E37E0E07E0709F486C079
:142D2A006E37E0E07E070CF49EC06039E0E07E0709F099C01D
:142D3E008091AD00883029F08A3019F0893009F090C0E091BC
:142D5200B301F091B401008107700E94910304E199DB442791
:142D6600552715C080E091E0FA01E80FF91F20808BEB91E0A6
:142D7A00FA01E80FF91F208280E091E0FA01E80FF91F222478
:142D8E0020824F5F5F4F4431E0E05E0738F309E110E0D2DBE7
:142DA20066C0E091B301F091B40120802092B10182DBE091CA
:142DB600B301F091B40120802092BB01D1D055C02090AD00FE
:142DCA00222009F450C073DB4427552780E091E0FA01E80FAE
:142DDE00F91F20808BEB91E0FA01E80FF91F20828091AD00D8
:142DF200883021F08A3011F0893039F480E091E0FA01E80FA0
:142E0600F91F2224208280EF90E0FA01E80FF91F20808BECB8
:142E1A0091E0FA01E80FF91F20824F5F5F4F4031E0E05E0795
:142E2E000CF4D2CF99D01DC040DBE091B301F091B401208093
:142E42002092BB0125B22092BC018CD010C0E091B301F091F6
:142E5600B40100810E9481062ADBE091B301F091B401208009
:142E6A002092BB017BD00C94111B5F9901C01EC02BB10CB19F
:142E7E00822F8C7109F018C0222712C0222E3324210188EB6A
:142E920091E0F101E058FF4FE80FF91F2080F201E158FF4F1A
:142EA600E80FF91F20822395253860F30093BC02089505E12B
:142EBA0010E044CB0E94E21A48EB51E080916F0090917000F2
:142ECE008F3FEFEF9E0709F445C02090AF013090B0014090FC
:142EE2006F0050907000421453048CF4F201E40FF51F008175
:142EF60053D0002399F180916F0090917000019690937000BD
:142F0A0080936F0029C02090AF013090B00140906F00509058
:142F1E00700042145304E9F400273AD00023E1F3002736D050
:142F3200A02E0023D9F3A7DAA02E0023E1F38091B901823EFD
:142F460011F0833E11F4F894FFCF8FEF9FEF909370008093A4
:142F5A006F00929801C092980C94E71A05E210E0EDCA4A93D3
:142F6E005A934427552707C0FA01E00FF11F222420824F5F24
:142F82005F4F42175307B4F359914991089525E031E008EBC9
:142F960011E0E9CF8CDA8DCF5D9B03C00CB901E001C0002773
:142FAA0008950E94081B66EC72E0442713C08DEB92E0E42FD2
:142FBE00FF27E80FF91FE081FF2784E291E0E80FF91F2490A9
:142FD200E42FFF27E60FF71F20824395493058F3442721C01D
:142FE600AA24CC2411C001E0142F0E94371BEC2DFF27E60FFC
:142FFA00F71F2080202229F001E01C2D0E94371BA02AC39473
:14300E008C2D883060F38FEC92E0E42FFF27EE0FFF1FE80FB2
:14302200F91FA08243954830E8F280912601813321F48FEFB7
:143036008093DE0203C022242092DE0280916000873021F4BB
:14304A008FEF8093D60203C022242092D6024DD00C94111B8D
:14305E000E945E1A0E94D71A690144273DC01AE0042F0E9410
:143072009F1AE02E00E11E2D0103E02C1AE0042F0E949D1AC1
:14308600E00E642F66956695669518E0042F0E949D1AA02E72
:14309A0017E0101B01E00E94371BE62FFF27EC0DFD1D20803D
:1430AE00202209F018C028E030E00E2D11270E94671A180134
:1430C2000A841B84200C311C210118E00E2D0E949D1A102F67
:1430D60001E00E94371BF2012080202A20824395403808F446
:1430EA00C0CF0E94CC1A249608954A935A932AE130E00FED83
:1430FE0012E00E94B6174091B10155274030450749F04130F8
:14311200E0E05E0761F04230E0E05E07A9F000C0A89520E006
:1431260031E00FED12E098DF0DC0442709C08FED92E0E42F1D
:14313A00FF27E80FF91F8FEF808343954A31A8F35991499119
:14314E0008958E9A8F9A8B9A8C9A8D9A979A939A949A959A52
:14316200969A08952090B100222019F48F9A979A02C08C9A9A
:14317600949ABF9A8E9AC79A969A08950000A89508950091FD
:14318A00AD00063011F4C79801C0979808950091AD000630E9
:14319E0011F4969A01C0939A08950091AD00063011F49698B6
:1431B20001C0939808950091AD00063011F4C79A01C0979AB4
:1431C60008950091AD00063041F42090B100222011F4979AD6
:1431DA0003C0949A01C0969A08950091AD00063041F4209009
:1431EE00B100222011F4979803C0949801C0969808950E9489
:14320200D71AC22EE02EAA84442721C001E0142F0E94371B37
:14321600602FB7DFB3DF2E2C262211F0BADF01C0C0DF809140
:14322A00AD00803160F02C2C262211F0949A01C094982A2CD0
:14323E00262211F0959A01C095989CDFB6DF9ADF439548303D
:14325200E8F20C94CC1A4A932197A7DEC2DF80E4888320E4DA
:1432660000E4CBDFAEDFBBDF80EC888320EC00ECC4DF442722
:14327A0018C08FEE92E0E42FFF27E80FF91F208028828FED6B
:14328E0092E0E42FFF27E80FF91F20818FEC92E0E42FFF27AB
:1432A200E80FF91F0081ABDF4395403130F38BDF67DF97DF6C
:1432B6008CE888832CE80CE8A0DF83DF2196499108950E94CC
:1432CA00081B580163E770E022E430E08B010E94C30CFB01CB
:1432DE00EE5BFF4F118300834427552721C0A89500E510E054
:1432F20095010E94B51ACA0140966C01C00ED11E86010E94CD
:143306003D1BFA01E60FF71F2080021559F08091F902853A8A
:14331A0039F4FA01E60FF71F208186010E94441B4F5F5F4FE7
:14332E004434E0E05E07D8F222242092F9020C94111BAA9229
:1433420003E710E092D0002319F403E710E053D0AA2407C079
:1433560085EA8093F9020A2D1127B3DFA39485E08A15B0F703
:14336A00A99008950E94081B43E750E066277727AA24BB2482
:14337E0015C0A89500E510E09B010E94B51AC50140966C013E
:14339200C00ED11E86010E943D1BF501E40FF51F0083C501A3
:1433A60001965C01C5018434E0E09E0730F322E430E08A0178
:1433BA000E94C30C5801FA01EE5BFF4F20803180E254F040EC
:1433CE000215130539F48F014AD0A02E002311F0B0DF09C09B
:1433E2006F5F7F4F6630E0E07E070CF4C5CF8A0102D00C94CF
:1433F600111B4A935A93A80124E430E08A010E94B6172224CC
:14340A00FA0122AE04E511E00E94231BFA0106A317A320A704
:14341E0031A784E081838AE090E093A782A78CE291E095A702
:1434320084A784E290E097A786A781E091AB80AB8AE093ABAA
:1434460082AB8CE291E095AB84AB84E290E097AB86AB84E644
:14345A0083AF81E385AF81E086AF6DDF5991499108954A9374
:14346E005A93A8014A5F5F4FF80125AC3324822D8133C8F021
:143482008AE58215B0F0222442A453A42414350484F480A95B
:1434960091A98130A0E09A0751F42180332484E0821528F0C6
:1434AA0080E0821510F401E001C000275991499108953A931C
:1434BE002A931A930A9308956894DA92D12E04C0E894DA9243
:1434D200D12ED32617FF04C0109500950F5F1F4F37FF04C004
:1434E600309520952F5F3F4F0E94841AD7FE04C01095009529
:1434FA000F5F1F4FD9900895689401C0E894EA92FA928A937E
:14350E00EE24FF2480E1000F111FEE1CFF1CE216F30618F0B6
:14352200E21AF30A03958A95A1F716F40E2D1F2D8991F99019
:14353600E9900895689401C0E8942A93FA92EA92FF24EE2438
:14354A0020E1000FFF1CEE1CE11610F0E11A03952A95B9F73F
:14355E000EF40E2DE990F990299108950A921A928A939A9331
:14357200029FC001129F900D039F900D8C01999189911990DC
:1435860009900895A990B990C990D990E990F9900895A990DF
:14359A00B990C990D990E990F99049915991699179910895AB
:1435AE007A936A935A934A93FA92EA92DA92CA92BA92AA92DD
:1435C20008955A934A93BA92AA920895A990B9904991599123
:1435D60008957A936A935A934A93BA92AA920895A990B990C9
:1435EA00499159916991799108955A934A93DA92CA92BA928A
:1435FE00AA920895A990B990C990D9904991599108957A932E
:143612006A935A934A93DA92CA92BA92AA920895A990B9906E
:14362600C990D990499159916991799108950095109520957A
:14363A0030950F5F1F4F2F4F3F4F0895EA93FA930A92E02F7D
:14364E00F12FC895002D3196C895102D3196C895202D319625
:14366200C895302D0990F991E9910895112319F0000F1A9565
:14367600FBCF0895E199FECF1FBB0EBBE09A0DB30895AA92DC
:14368A00E199FECF1FBB0EBB2DBBAFB6F894E29AE19AAFBE05
:14369E0000271127A9900895689401C0E8940E943A1D0E940F
:1436B200CC1C09F448C0E62CD52CC42CB32EA22E912E802EF6
:1436C60000811181228133810E94CC1C09F444C0842D952D88
:1436DA008C199D09B9F072F49095809501964C2C5D2C8831F7
:1436EE00B8F535952795179507950197D1F708C0883118F55F
:14370200B594A794979487940197D1F766242EF0080D191D96
:143716002A1D3B1D09C0801A910AA20AB30A082D192D2A2DC7
:14372A003B2D332322F40E941A1B80E8682E0E94F51C02C06D
:14373E000E942A1D0E94491D08950081118122813381C6F7C2
:143752000E94D41CA9F380E83827F2CF082D192D2A2D3B2D73
:143766004C2C5D2C6E2C33233AF70E941A1B80E8682EE2CFA7
:14377A00FA93EA93EA81FB810E94551BE991F99122960895DF
:14378E00FA93EA93EC2FFD2F32960E94551BE991F99124963E
:1437A2000895FA93EA93EA81FB810E94531BE991F9912296B9
:1437B60008954A925A926A928A930E94DC1C11F15520E2F09E
:1437CA008FE14816C0F487E14816D1F058F4419489EE481AE8
:1437DE0005C035952795179507954A94D1F70EC087E1481A06
:1437F200000F111F221F331F4A94D1F705C03FE7232F132FCC
:14380600032F04C0662011F00E941A1B899169905990499085
:14381A000895689401C0E8942227332746F017FD209517FD0E
:14382E00309503C0689401C0E8944A925A926A928A9387E17C
:14384200482E5524662436F0332322F40E941A1B80E8682E92
:143856000E94F51C89916990599049900895FA93EA93EA81C4
:14386A00FB8127D0E991F99122960895FA93EA93EC2FFD2F2D
:14387E0032961DD0E991F99124960895FA93EA93EA81FB8135
:1438920014D0E991F991398328831A930A930895FA93EA93E2
:1438A600EC2FFD2F329607D0E991F9913B832A831983088392
:1438BA0008950A921A922A923A920E943A1D3A932A931A935D
:1438CE000A9300811181228133810E94DC1C09F457C0E62C1F
:1438E200D52CC42CB32EA22E912E802E0991199129913991FB
:1438F6000E94DC1CA1F16E244C185D0880E8481653060CF01C
:14390A0033C081E848168FEF58060CF436C080E23324232E13
:14391E00122E012E302F222711270027269417940794379553
:143932002795000F111F221F331F001C111C221C331C28F005
:14394600081819082A083B0804C0080C191C2A1C3B1C0AF013
:14395A0001608A9551F70E94F51C0E94491D399029901990AB
:14396E00099008950FEF102F2FE73FE7662099F30E941A1BAD
:14398200F0CF0027102F202F302FEBCF0991199129913991DC
:14399600EDCF0FD029F0662011F00E941A1B9894089500231F
:1439AA0029F4112319F4222309F433230895F7DF99F08A93FA
:1439BE00632E80E86822220F331F432E8FE7481A552488277E
:1439D200580A269530E8232B33278991989408954424552440
:1439E60066240895DEDF09F40895AA93BA93D2019A938A93A8
:1439FA008EE790E0332349F03695279517950795A817B907F7
:143A0E00CCF41196F5CF8095909501962223BAF0000F111F7A
:143A2200221FA817B90714F01197F6CF00271127222733275D
:143A3600899199912D01B991A991089533270FEF102F2FE73C
:143A4A00322F899199912D0102C0AA93BA93A7DF49F0D201B7
:143A5E00A158BF4F2D01342D220F369527953629B991A99123
:143A720008954A925A926A927A928A929A92AA92BA92CA92A7
:143A8600DA92EA92FA928A939A93089599918991F990E9908B
:143A9A00D990C990B990A990999089907990699059904990CE
:143AAE0008950E943A1DAA93BA930E94DC1CE1F1E62CD52C65
:143AC200C42CB32EA22E912E802E00811181228133810E94D6
:143AD600DC1C71F16E244C0C5D1C80E84816530664F581E83E
:143AEA0048168FEF58066CF1A29EB12DA02D919E912D802DAC
:143AFE00A09E800D911DA31FB31F829E800D911DA31FB31FB8
:143B1200929E900DA11DB31FA19E900DA11DB31F2B2F1A2F33
:143B2600092F880F001F111F221F331F0E94F51CB991A991A3
:143B3A000E94491D08950FEF102F2FE78FE7482EF5CF0027A8
:143B4E00102F202F302FF0CFFA93EA93EA81FB810E94581DAF
:143B6200E991F99122960895FA93EA93EC2FFD2F32960E943B
:143B7600581DE991F99124960895FA93EA93EC2FFD2F329652
:143B8A000E94581DE991F9913B832A831983088308950E943B
:143B9E00531B33233AF00E94D41C11F001E008950027089550
:143BB2000FEF0895FA93EA93EA81FB810E94CE1DE991F991E2
:143BC600229600230895FA93EA93EC2FFD2F32960E94CE1DCD
:0A3BDA00E991F99124960023089563
:00000001FF
